{
  "_format": "hh-sol-artifact-1",
  "contractName": "isRugRouter",
  "sourceName": "contracts/isRugRouter.sol",
  "abi": [
    {
      "inputs": [
        {
          "internalType": "address",
          "name": "_factory",
          "type": "address"
        },
        {
          "internalType": "address",
          "name": "_weth",
          "type": "address"
        }
      ],
      "stateMutability": "nonpayable",
      "type": "constructor"
    },
    {
      "anonymous": false,
      "inputs": [
        {
          "indexed": false,
          "internalType": "uint256",
          "name": "bfBalance",
          "type": "uint256"
        },
        {
          "indexed": false,
          "internalType": "uint256",
          "name": "aftBalance",
          "type": "uint256"
        }
      ],
      "name": "Balance",
      "type": "event"
    },
    {
      "anonymous": false,
      "inputs": [
        {
          "indexed": false,
          "internalType": "uint256",
          "name": "calculated",
          "type": "uint256"
        },
        {
          "indexed": false,
          "internalType": "uint256",
          "name": "output",
          "type": "uint256"
        }
      ],
      "name": "Swap",
      "type": "event"
    },
    {
      "inputs": [],
      "name": "WETH",
      "outputs": [
        {
          "internalType": "address",
          "name": "",
          "type": "address"
        }
      ],
      "stateMutability": "view",
      "type": "function"
    },
    {
      "inputs": [
        {
          "internalType": "address[]",
          "name": "path",
          "type": "address[]"
        },
        {
          "internalType": "address",
          "name": "pairAdr",
          "type": "address"
        }
      ],
      "name": "buy",
      "outputs": [],
      "stateMutability": "payable",
      "type": "function"
    },
    {
      "inputs": [],
      "name": "factory",
      "outputs": [
        {
          "internalType": "address",
          "name": "",
          "type": "address"
        }
      ],
      "stateMutability": "view",
      "type": "function"
    },
    {
      "inputs": [
        {
          "internalType": "address[]",
          "name": "path",
          "type": "address[]"
        },
        {
          "internalType": "address",
          "name": "pair",
          "type": "address"
        },
        {
          "internalType": "uint256",
          "name": "amount",
          "type": "uint256"
        }
      ],
      "name": "sell",
      "outputs": [],
      "stateMutability": "payable",
      "type": "function"
    },
    {
      "inputs": [
        {
          "internalType": "address",
          "name": "token",
          "type": "address"
        },
        {
          "internalType": "address",
          "name": "transitWallet",
          "type": "address"
        }
      ],
      "name": "transitTransferCheck",
      "outputs": [],
      "stateMutability": "nonpayable",
      "type": "function"
    }
  ],
  "bytecode": "0x60c06040523480156200001157600080fd5b506040516200212538038062002125833981810160405281019062000037919062000104565b8173ffffffffffffffffffffffffffffffffffffffff1660808173ffffffffffffffffffffffffffffffffffffffff1660601b815250508073ffffffffffffffffffffffffffffffffffffffff1660a08173ffffffffffffffffffffffffffffffffffffffff1660601b81525050336000806101000a81548173ffffffffffffffffffffffffffffffffffffffff021916908373ffffffffffffffffffffffffffffffffffffffff160217905550505062000193565b600081519050620000fe8162000179565b92915050565b600080604083850312156200011857600080fd5b60006200012885828601620000ed565b92505060206200013b85828601620000ed565b9150509250929050565b6000620001528262000159565b9050919050565b600073ffffffffffffffffffffffffffffffffffffffff82169050919050565b620001848162000145565b81146200019057600080fd5b50565b60805160601c60a05160601c611f4a620001db60003960008181610410015281816106aa0152818161072e015281816107590152610784015260006104340152611f4a6000f3fe60806040526004361061004a5760003560e01c80638bec537c1461004f578063ad5c46481461006b578063c45a015514610096578063cb3307a4146100c1578063f19f733f146100ea575b600080fd5b610069600480360381019061006491906115cc565b610106565b005b34801561007757600080fd5b5061008061040e565b60405161008d919061186d565b60405180910390f35b3480156100a257600080fd5b506100ab610432565b6040516100b8919061186d565b60405180910390f35b3480156100cd57600080fd5b506100e860048036038101906100e39190611538565b610456565b005b61010460048036038101906100ff9190611574565b6106a8565b005b61016084846000818110610143577f4e487b7100000000000000000000000000000000000000000000000000000000600052603260045260246000fd5b9050602002016020810190610158919061150f565b338484610a57565b600084846001878790506101749190611b56565b8181106101aa577f4e487b7100000000000000000000000000000000000000000000000000000000600052603260045260246000fd5b90506020020160208101906101bf919061150f565b73ffffffffffffffffffffffffffffffffffffffff166370a08231336040518263ffffffff1660e01b81526004016101f7919061186d565b60206040518083038186803b15801561020f57600080fd5b505afa158015610223573d6000803e3d6000fd5b505050506040513d601f19601f8201168201806040525081019061024791906116b0565b90506000610297868680806020026020016040519081016040528093929190818152602001838360200280828437600081840152601f19601f820116905080830192505050505050508585610b90565b9050600086866001898990506102ad9190611b56565b8181106102e3577f4e487b7100000000000000000000000000000000000000000000000000000000600052603260045260246000fd5b90506020020160208101906102f8919061150f565b73ffffffffffffffffffffffffffffffffffffffff166370a08231336040518263ffffffff1660e01b8152600401610330919061186d565b60206040518083038186803b15801561034857600080fd5b505afa15801561035c573d6000803e3d6000fd5b505050506040513d601f19601f8201168201806040525081019061038091906116b0565b9050600083826103909190611b56565b90507f740f7e210cf19d27b8ab2cec1ebb61687bdc5f38f8bd56f0c8e5d22ed71854db84836040516103c39291906119c8565b60405180910390a17f015fc8ee969fd902d9ebd12a31c54446400a2b512a405366fe14defd6081d22083826040516103fc9291906119c8565b60405180910390a15050505050505050565b7f000000000000000000000000000000000000000000000000000000000000000081565b7f000000000000000000000000000000000000000000000000000000000000000081565b600082905060008173ffffffffffffffffffffffffffffffffffffffff166370a08231336040518263ffffffff1660e01b8152600401610496919061186d565b60206040518083038186803b1580156104ae57600080fd5b505afa1580156104c2573d6000803e3d6000fd5b505050506040513d601f19601f820116820180604052508101906104e691906116b0565b90508173ffffffffffffffffffffffffffffffffffffffff166323b872dd33856002856105139190611acb565b6040518463ffffffff1660e01b815260040161053193929190611888565b602060405180830381600087803b15801561054b57600080fd5b505af115801561055f573d6000803e3d6000fd5b505050506040513d601f19601f820116820180604052508101906105839190611638565b5060008273ffffffffffffffffffffffffffffffffffffffff166370a08231856040518263ffffffff1660e01b81526004016105bf919061186d565b60206040518083038186803b1580156105d757600080fd5b505afa1580156105eb573d6000803e3d6000fd5b505050506040513d601f19601f8201168201806040525081019061060f91906116b0565b90508273ffffffffffffffffffffffffffffffffffffffff166323b872dd8533846040518463ffffffff1660e01b815260040161064e93929190611888565b602060405180830381600087803b15801561066857600080fd5b505af115801561067c573d6000803e3d6000fd5b505050506040513d601f19601f820116820180604052508101906106a09190611638565b505050505050565b7f000000000000000000000000000000000000000000000000000000000000000073ffffffffffffffffffffffffffffffffffffffff1663d0e30db0346040518263ffffffff1660e01b81526004016000604051808303818588803b15801561071057600080fd5b505af1158015610724573d6000803e3d6000fd5b50505050506107547f00000000000000000000000000000000000000000000000000000000000000008234610fc3565b61077f7f00000000000000000000000000000000000000000000000000000000000000003034610fc3565b6107aa7f000000000000000000000000000000000000000000000000000000000000000082346110f9565b600083836001868690506107be9190611b56565b8181106107f4577f4e487b7100000000000000000000000000000000000000000000000000000000600052603260045260246000fd5b9050602002016020810190610809919061150f565b73ffffffffffffffffffffffffffffffffffffffff166370a08231336040518263ffffffff1660e01b8152600401610841919061186d565b60206040518083038186803b15801561085957600080fd5b505afa15801561086d573d6000803e3d6000fd5b505050506040513d601f19601f8201168201806040525081019061089191906116b0565b905060006108e1858580806020026020016040519081016040528093929190818152602001838360200280828437600081840152601f19601f820116905080830192505050505050508434610b90565b9050600085856001888890506108f79190611b56565b81811061092d577f4e487b7100000000000000000000000000000000000000000000000000000000600052603260045260246000fd5b9050602002016020810190610942919061150f565b73ffffffffffffffffffffffffffffffffffffffff166370a08231336040518263ffffffff1660e01b815260040161097a919061186d565b60206040518083038186803b15801561099257600080fd5b505afa1580156109a6573d6000803e3d6000fd5b505050506040513d601f19601f820116820180604052508101906109ca91906116b0565b9050600083826109da9190611b56565b90507f740f7e210cf19d27b8ab2cec1ebb61687bdc5f38f8bd56f0c8e5d22ed71854db8483604051610a0d9291906119c8565b60405180910390a17f015fc8ee969fd902d9ebd12a31c54446400a2b512a405366fe14defd6081d2208382604051610a469291906119c8565b60405180910390a150505050505050565b6000808573ffffffffffffffffffffffffffffffffffffffff166323b872dd868686604051602401610a8b93929190611888565b6040516020818303038152906040529060e01b6020820180517bffffffffffffffffffffffffffffffffffffffffffffffffffffffff8381831617835250505050604051610ad99190611856565b6000604051808303816000865af19150503d8060008114610b16576040519150601f19603f3d011682016040523d82523d6000602084013e610b1b565b606091505b5091509150818015610b495750600081511480610b48575080806020019051810190610b479190611638565b5b5b610b88576040517f08c379a0000000000000000000000000000000000000000000000000000000008152600401610b7f906118e8565b60405180910390fd5b505050505050565b600080610c1f85600081518110610bd0577f4e487b7100000000000000000000000000000000000000000000000000000000600052603260045260246000fd5b602002602001015186600181518110610c12577f4e487b7100000000000000000000000000000000000000000000000000000000600052603260045260246000fd5b602002602001015161122f565b50905060008490506000808273ffffffffffffffffffffffffffffffffffffffff16630902f1ac6040518163ffffffff1660e01b815260040160606040518083038186803b158015610c7057600080fd5b505afa158015610c84573d6000803e3d6000fd5b505050506040513d601f19601f82011682018060405250810190610ca89190611661565b506dffffffffffffffffffffffffffff1691506dffffffffffffffffffffffffffff1691506000808573ffffffffffffffffffffffffffffffffffffffff168a600081518110610d21577f4e487b7100000000000000000000000000000000000000000000000000000000600052603260045260246000fd5b602002602001015173ffffffffffffffffffffffffffffffffffffffff1614610d4b578284610d4e565b83835b915091506000828b600081518110610d8f577f4e487b7100000000000000000000000000000000000000000000000000000000600052603260045260246000fd5b602002602001015173ffffffffffffffffffffffffffffffffffffffff166370a082318c6040518263ffffffff1660e01b8152600401610dcf919061186d565b60206040518083038186803b158015610de757600080fd5b505afa158015610dfb573d6000803e3d6000fd5b505050506040513d601f19601f82011682018060405250810190610e1f91906116b0565b610e299190611b56565b90506000610e3882858561135d565b9050610e458a858561135d565b98506000808973ffffffffffffffffffffffffffffffffffffffff168e600081518110610e9b577f4e487b7100000000000000000000000000000000000000000000000000000000600052603260045260246000fd5b602002602001015173ffffffffffffffffffffffffffffffffffffffff1614610ec657826000610eca565b6000835b915091508873ffffffffffffffffffffffffffffffffffffffff1663022c0d9f838333600067ffffffffffffffff811115610f2e577f4e487b7100000000000000000000000000000000000000000000000000000000600052604160045260246000fd5b6040519080825280601f01601f191660200182016040528015610f605781602001600182028036833780820191505090505b506040518563ffffffff1660e01b8152600401610f8094939291906119f1565b600060405180830381600087803b158015610f9a57600080fd5b505af1158015610fae573d6000803e3d6000fd5b50505050505050505050505050509392505050565b6000808473ffffffffffffffffffffffffffffffffffffffff1663095ea7b38585604051602401610ff59291906118bf565b6040516020818303038152906040529060e01b6020820180517bffffffffffffffffffffffffffffffffffffffffffffffffffffffff83818316178352505050506040516110439190611856565b6000604051808303816000865af19150503d8060008114611080576040519150601f19603f3d011682016040523d82523d6000602084013e611085565b606091505b50915091508180156110b357506000815114806110b25750808060200190518101906110b19190611638565b5b5b6110f2576040517f08c379a00000000000000000000000000000000000000000000000000000000081526004016110e990611948565b60405180910390fd5b5050505050565b6000808473ffffffffffffffffffffffffffffffffffffffff1663a9059cbb858560405160240161112b9291906118bf565b6040516020818303038152906040529060e01b6020820180517bffffffffffffffffffffffffffffffffffffffffffffffffffffffff83818316178352505050506040516111799190611856565b6000604051808303816000865af19150503d80600081146111b6576040519150601f19603f3d011682016040523d82523d6000602084013e6111bb565b606091505b50915091508180156111e957506000815114806111e85750808060200190518101906111e79190611638565b5b5b611228576040517f08c379a000000000000000000000000000000000000000000000000000000000815260040161121f90611968565b60405180910390fd5b5050505050565b6000808273ffffffffffffffffffffffffffffffffffffffff168473ffffffffffffffffffffffffffffffffffffffff1614156112a1576040517f08c379a000000000000000000000000000000000000000000000000000000000815260040161129890611908565b60405180910390fd5b8273ffffffffffffffffffffffffffffffffffffffff168473ffffffffffffffffffffffffffffffffffffffff16106112db5782846112de565b83835b8092508193505050600073ffffffffffffffffffffffffffffffffffffffff168273ffffffffffffffffffffffffffffffffffffffff161415611356576040517f08c379a000000000000000000000000000000000000000000000000000000000815260040161134d90611988565b60405180910390fd5b9250929050565b60008084116113a1576040517f08c379a0000000000000000000000000000000000000000000000000000000008152600401611398906119a8565b60405180910390fd5b6000831180156113b15750600082115b6113f0576040517f08c379a00000000000000000000000000000000000000000000000000000000081526004016113e790611928565b60405180910390fd5b60006103e5856114009190611afc565b9050600083826114109190611afc565b90506000826103e8876114239190611afc565b61142d9190611a75565b9050808261143b9190611acb565b93505050509392505050565b60008135905061145681611ea1565b92915050565b60008083601f84011261146e57600080fd5b8235905067ffffffffffffffff81111561148757600080fd5b60208301915083602082028301111561149f57600080fd5b9250929050565b6000815190506114b581611eb8565b92915050565b6000815190506114ca81611ecf565b92915050565b6000813590506114df81611ee6565b92915050565b6000815190506114f481611ee6565b92915050565b60008151905061150981611efd565b92915050565b60006020828403121561152157600080fd5b600061152f84828501611447565b91505092915050565b6000806040838503121561154b57600080fd5b600061155985828601611447565b925050602061156a85828601611447565b9150509250929050565b60008060006040848603121561158957600080fd5b600084013567ffffffffffffffff8111156115a357600080fd5b6115af8682870161145c565b935093505060206115c286828701611447565b9150509250925092565b600080600080606085870312156115e257600080fd5b600085013567ffffffffffffffff8111156115fc57600080fd5b6116088782880161145c565b9450945050602061161b87828801611447565b925050604061162c878288016114d0565b91505092959194509250565b60006020828403121561164a57600080fd5b6000611658848285016114a6565b91505092915050565b60008060006060848603121561167657600080fd5b6000611684868287016114bb565b9350506020611695868287016114bb565b92505060406116a6868287016114fa565b9150509250925092565b6000602082840312156116c257600080fd5b60006116d0848285016114e5565b91505092915050565b6116e281611b8a565b82525050565b60006116f382611a3d565b6116fd8185611a48565b935061170d818560208601611bfc565b61171681611c8d565b840191505092915050565b600061172c82611a3d565b6117368185611a59565b9350611746818560208601611bfc565b80840191505092915050565b600061175f603183611a64565b915061176a82611c9e565b604082019050919050565b6000611782602583611a64565b915061178d82611ced565b604082019050919050565b60006117a5602883611a64565b91506117b082611d3c565b604082019050919050565b60006117c8602b83611a64565b91506117d382611d8b565b604082019050919050565b60006117eb602d83611a64565b91506117f682611dda565b604082019050919050565b600061180e601e83611a64565b915061181982611e29565b602082019050919050565b6000611831602b83611a64565b915061183c82611e52565b604082019050919050565b61185081611be2565b82525050565b60006118628284611721565b915081905092915050565b600060208201905061188260008301846116d9565b92915050565b600060608201905061189d60008301866116d9565b6118aa60208301856116d9565b6118b76040830184611847565b949350505050565b60006040820190506118d460008301856116d9565b6118e16020830184611847565b9392505050565b6000602082019050818103600083015261190181611752565b9050919050565b6000602082019050818103600083015261192181611775565b9050919050565b6000602082019050818103600083015261194181611798565b9050919050565b60006020820190508181036000830152611961816117bb565b9050919050565b60006020820190508181036000830152611981816117de565b9050919050565b600060208201905081810360008301526119a181611801565b9050919050565b600060208201905081810360008301526119c181611824565b9050919050565b60006040820190506119dd6000830185611847565b6119ea6020830184611847565b9392505050565b6000608082019050611a066000830187611847565b611a136020830186611847565b611a2060408301856116d9565b8181036060830152611a3281846116e8565b905095945050505050565b600081519050919050565b600082825260208201905092915050565b600081905092915050565b600082825260208201905092915050565b6000611a8082611be2565b9150611a8b83611be2565b9250827fffffffffffffffffffffffffffffffffffffffffffffffffffffffffffffffff03821115611ac057611abf611c2f565b5b828201905092915050565b6000611ad682611be2565b9150611ae183611be2565b925082611af157611af0611c5e565b5b828204905092915050565b6000611b0782611be2565b9150611b1283611be2565b9250817fffffffffffffffffffffffffffffffffffffffffffffffffffffffffffffffff0483118215151615611b4b57611b4a611c2f565b5b828202905092915050565b6000611b6182611be2565b9150611b6c83611be2565b925082821015611b7f57611b7e611c2f565b5b828203905092915050565b6000611b9582611bc2565b9050919050565b60008115159050919050565b60006dffffffffffffffffffffffffffff82169050919050565b600073ffffffffffffffffffffffffffffffffffffffff82169050919050565b6000819050919050565b600063ffffffff82169050919050565b60005b83811015611c1a578082015181840152602081019050611bff565b83811115611c29576000848401525b50505050565b7f4e487b7100000000000000000000000000000000000000000000000000000000600052601160045260246000fd5b7f4e487b7100000000000000000000000000000000000000000000000000000000600052601260045260246000fd5b6000601f19601f8301169050919050565b7f5472616e7366657248656c7065723a3a7472616e7366657246726f6d3a20747260008201527f616e7366657246726f6d206661696c6564000000000000000000000000000000602082015250565b7f556e697377617056324c6962726172793a204944454e544943414c5f4144445260008201527f4553534553000000000000000000000000000000000000000000000000000000602082015250565b7f556e697377617056324c6962726172793a20494e53554646494349454e545f4c60008201527f4951554944495459000000000000000000000000000000000000000000000000602082015250565b7f5472616e7366657248656c7065723a3a73616665417070726f76653a2061707060008201527f726f7665206661696c6564000000000000000000000000000000000000000000602082015250565b7f5472616e7366657248656c7065723a3a736166655472616e736665723a20747260008201527f616e73666572206661696c656400000000000000000000000000000000000000602082015250565b7f556e697377617056324c6962726172793a205a45524f5f414444524553530000600082015250565b7f556e697377617056324c6962726172793a20494e53554646494349454e545f4960008201527f4e5055545f414d4f554e54000000000000000000000000000000000000000000602082015250565b611eaa81611b8a565b8114611eb557600080fd5b50565b611ec181611b9c565b8114611ecc57600080fd5b50565b611ed881611ba8565b8114611ee357600080fd5b50565b611eef81611be2565b8114611efa57600080fd5b50565b611f0681611bec565b8114611f1157600080fd5b5056fea2646970667358221220e9bef4af49a700b41f81e6a204b0a6546638a4d38c4d1ac18dea77bb53529a4864736f6c63430008040033",
  "linkReferences": {},
  "deployedLinkReferences": {}
}